:020000040800F2
:1000000000800220FD0300083503000843030008B8
:10001000490300084F0300085503000800000000D2
:100020000000000000000000000000005B0300086A
:10003000690300080000000077030008850300083A
:100040004D0400084D0400084D0400084D0400084C
:100050004D0400084D0400084D0400084D0400083C
:100060004D0400084D0400084D0400084D0400082C
:100070004D0400084D0400084D0400084D0400081C
:100080004D0400084D0400084D0400084D0400080C
:100090004D0400084D0400084D0400084D040008FC
:1000A0004D0400084D0400084D0400084D040008EC
:1000B0004D0400084D040008000000004D04000835
:1000C0004D0400084D0400084D0400084D040008CC
:1000D0004D0400084D0400084D0400084D040008BC
:1000E0004D0400084D04000800000000000000005E
:1000F0000000000000000000000000000000000000
:10010000000000004D040008000000004D0400083D
:100110004D040008000000004D040008000000002D
:100120004D0400084D0400084D0400084D0400086B
:100130004D0400084D0400084D04000800000000B4
:100140004D0400084D0400084D0400084D0400084B
:100150004D0400084D0400084D0400084D0400083B
:100160004D0400084D0400084D0400080000000084
:10017000000000004D040008000000000000000026
:100180004D0400084D0400084D0400084D0400080B
:040190004D04000812
:1001940010B5054C237833B9044B13B10448AFF3BD
:1001A40000800123237010BD3C00002000000000EB
:1001B4007C1A000808B5034B1BB103490348AFF38D
:1001C400008008BD00000000400000207C1A0008E8
:1001D40080B500AF00F0FAF900F014F800F064F80C
:1001E40010220549054800F055F910220449034836
:1001F40000F0C4F9FEE700BF0000002000900108F1
:100204006C00002080B596B000AF07F114034422BF
:100214000021184601F028FC3B4600221A605A606F
:100224009A60DA601A6110237B610123FB62002368
:100234003B6360237B630223FB6301233B64012351
:100244007B642823BB640723FB6402233B650223EE
:100254007B6507F11403184600F0F6FD0346002BF6
:1002640001D000F039F80F233B6003237B600023A7
:10027400BB600023FB6000233B613B46042118461E
:1002840001F002FA0346002B01D000F025F84FF4E8
:10029400007000F083FD0346002B01D000F01CF831
:1002A40000BF5837BD4680BD80B483B000AF094B52
:1002B400DB6C084A43F00103D364064BDB6C03F0A8
:1002C40001037B607B6800BF0C37BD465DF8047B8F
:1002D400704700BF0010024080B400AF00BFBD46AD
:1002E4005DF8047B7047000080B483B000AF0F4B0F
:1002F4001B6E0E4A43F0010313660C4B1B6E03F096
:1003040001037B607B68094B9B6D084A43F0805373
:100314009365064B9B6D03F080533B603B6800BFC5
:100324000C37BD465DF8047B704700BF00100240E7
:1003340080B400AF00BFBD465DF8047B704780B455
:1003440000AFFEE780B400AFFEE780B400AFFEE785
:1003540080B400AFFEE780B400AF00BFBD465DF8D7
:10036400047B704780B400AF00BFBD465DF8047BDA
:10037400704780B400AF00BFBD465DF8047B704792
:1003840080B500AF00F076F900BF80BD80B400AF47
:10039400174BD3F88830164A43F47003C2F88830F8
:1003A400144B1B68134A43F001031360114B0022E2
:1003B4009A60104B1B680F4A23F0A85323F41023B0
:1003C40013600C4B4FF48052DA600A4B1B68094AE5
:1003D40023F480231360074B00229A61044B4FF0EF
:1003E40000629A6000BFBD465DF8047B704700BFA1
:1003F40000ED00E000100240DFF834D0FFF7C6FF44
:10040400002103E00B4B5B58435004310A480B4B6B
:1004140042189A42F6D30A4A02E0002342F8043B07
:10042400084B9A42F9D301F0FBFAFFF7D1FEFEE73D
:1004340000800220DC1A0008000000203C0000209C
:100444003C000020D8000020FEE780B485B000AF57
:1004540078600023FB6012E0FB6803F10113DB0208
:100464007A689A4208D2FB6803F58033DB027A6823
:100474009A4201D3FB6806E0FB680133FB60FB682A
:10048400FF2BE9DD002318461437BD465DF8047BD5
:100494007047000090B58FB000AFF860B9607A6023
:1004A40000237B864FF000034FF00004C7E90834B3
:1004B4004FF000034FF00004C7E90634BB687B63C8
:1004C400FB68FB627B6803F00703002B4ED17B685B
:1004D400DB084FF00004C7E9063400F03DFAF86881
:1004E400FFF7B3FF7861244B00221A60224A7B692C
:1004F4009360214B0122DA601F4B01225A6007F1FD
:10050400100319461C4800F015FB0346002B03D0CA
:1005140000F054FA03462AE000237B861BE07B6B41
:10052400D3E90034C7E90834D7E90823F96A00207D
:1005340000F0A6F90346002B06D1FB6A0833FB62E0
:100544007B6B08337B6303E000F038FA03460EE06C
:100554007B8E01337B86798E4FF00002D7E9063417
:10056400A24208BF9942DAD300F018FA00231846D1
:100574003C37BD4690BD00BF5800002080B489B010
:1005840000AFF860B9601346FB800023FB83FB686F
:10059400BB61BB687B610023FB830DE0BB691B78F7
:1005A400DAB27B691A707B6901337B61BB69013301
:1005B400BB61FB8B0133FB83FA8BFB889A42EDD33F
:1005C40000BF2437BD465DF8047B704780B582B018
:1005D40000AF0023FB71032000F01EF9002000F09F
:1005E4000DF80346002B02D00123FB7101E0FFF755
:1005F4007BFEFB7918460837BD4680BD80B584B0C4
:1006040000AF78600023FB73174B1B78002B23D0BB
:10061400164B1A68144B1B7819464FF47A73B3FBC4
:10062400F1F3B2FBF3F3184600F01DF90346002B77
:100634000FD17B680F2B09D8002279684FF0FF3067
:1006440000F0F5F80A4A7B68136007E00123FB73A6
:1006540004E00123FB7301E00123FB73FB7B1846D9
:100664001037BD4680BD00BF1800002010000020D8
:100674001400002080B400AF064B1B781A46064BCA
:100684001B681344044A136000BFBD465DF8047B35
:10069400704700BF18000020D400002080B400AFD1
:1006A400034B1B681846BD465DF8047B704700BFCA
:1006B400D400002080B485B000AF78607B6803F07C
:1006C4000703FB600C4BDB68BB60BA684FF6FF03A3
:1006D4001340BB60FB681A02BB68134343F0BF635B
:1006E40043F40033BB60044ABB68D36000BF1437D3
:1006F400BD465DF8047B704700ED00E080B400AFB8
:10070400044BDB681B0A03F007031846BD465DF87B
:10071400047B704700ED00E080B483B000AF034673
:100724003960FB7197F90730002B0ADB3B68DAB2BA
:100734000C4997F907301201D2B20B4483F8002315
:100744000AE03B68DAB20849FB7903F00F03043B83
:100754001201D2B20B441A7600BF0C37BD465DF8C5
:10076400047B704700E100E000ED00E080B489B054
:1007740000AFF860B9607A60FB6803F00703FB61BF
:10078400FB69C3F10703042B28BF0423BB61FB6986
:100794000433062B02D9FB69033B00E000237B6191
:1007A4004FF0FF32BB6902FA03F3DA43BB681A4025
:1007B4007B699A404FF0FF317B6901FA03F3D94317
:1007C4007B680B40134318462437BD465DF8047B11
:1007D4007047000080B582B000AF78607B68013B51
:1007E400B3F1807F01D301230FE00A4A7B68013B08
:1007F40053600F214FF0FF30FFF78EFF054B0022AF
:100804009A60044B07221A60002318460837BD4635
:1008140080BD00BF10E000E080B582B000AF78601A
:100824007868FFF747FF00BF0837BD4680BD80B535
:1008340086B000AF0346B9607A60FB7300237B6126
:10084400FFF75CFF78617A68B9687869FFF78EFF13
:10085400024697F90F3011461846FFF75DFF00BFB7
:100864001837BD4680BD80B582B000AF7860786827
:10087400FFF7B0FF034618460837BD4680BD0000A9
:1008840080B586B000AFF860B960C7E900230023E3
:100894003B612F4B1B78012B01D1022353E02C4BDE
:1008A40001221A704CF2503000F094F80346FB75A4
:1008B400FB7D002B43D1264B00225A60254B1B683D
:1008C40003F48063002B09D0224B1B68214A23F4D4
:1008D400806313601E4B02221A7702E01C4B002235
:1008E4001A77FB68002B07D1D7E90023B86800F01A
:1008F400C9F801233B6110E0FB68012B02D0FB68BF
:10090400022B0AD13B681946B86800F0DFF8FB688F
:10091400022B02D14FF480233B614CF2503000F0A3
:1009240059F80346FB753B69002B06D0094B5A69FD
:100934003B69DB43074913404B6100F0DDF9044B8D
:1009440000221A70FB7D18461837BD4680BD00BFD3
:100954001C0000200020024080B483B000AF0023BC
:10096400FB710B4B5B69002B0BDA094B094A9A604C
:10097400074B094A9A60064B5B69002B01DA012395
:10098400FB71FB7918460C37BD465DF8047B704754
:100994000020024023016745AB89EFCD80B400AF4E
:1009A400054B5B69044A43F0004353610023184636
:1009B400BD465DF8047B70470020024080B400AF60
:1009C400034B5B681846BD465DF8047B704700BF67
:1009D4001C00002080B584B000AF7860FFF75EFE95
:1009E400F8600DE07B68B3F1FF3F09D0FFF756FED6
:1009F4000246FB68D31A7A689A4201D8032336E088
:100A04001D4B1B6903F48033002BEBD11A4B1A697D
:100A14001A4B1340BB60BB68002B1ED0184B5A689E
:100A2400BB681343164A5360BB6803F04043002B72
:100A340007D0114B9A69BB6803F040430E49134336
:100A44008B61BB6823F04043002B04D00A4ABB6887
:100A540023F040431361012309E0074B1B6903F0B2
:100A64000103002B02D0044B01221A610023184613
:100A74001037BD4680BD00BF00200240FAC302000B
:100A84001C00002090B484B000AFF860C7E90023D4
:100A94000D4B5B690C4A43F001035361FB683A68F0
:100AA4001A60BFF36F8FD7E900124FF000034FF0C5
:100AB400000413000024FA680432136000BF1037E6
:100AC400BD4690BC704700BF0020024080B489B08E
:100AD40000AF786039604023FB777B68BB613B687B
:100AE4007B61134B5B69124A43F480235361EFF338
:100AF4001083FB60FB683B6172B67B691A68BB6953
:100B04001A60BB690433BB617B6904337B61FB7F7F
:100B1400013BFB77FB7F002BEFD13B69BB60BB68DC
:100B240083F3108800BF2437BD465DF8047B70470B
:100B34000020024080B584B000AF786039604B4B30
:100B44001B78012B01D102238BE0484B01221A7040
:100B54004CF25030FFF73EFF0346FB73FB7B002B48
:100B64007BD1424B00225A60414B1B6803F4007353
:100B7400002B19D03E4B1B683D4A23F400731360CD
:100B84003B4B1B6803F48063002B09D0384B1B6874
:100B9400374A23F480631360344B03221A7716E038
:100BA400324B01221A7712E0314B1B6803F4806345
:100BB400002B09D02E4B1B682D4A23F4806313604D
:100BC4002A4B02221A7702E0284B00221A777B680C
:100BD4001B68012B11D17B685B68184600F04AF84A
:100BE4004CF25030FFF7F6FE0346FB73204B5B6973
:100BF4001F4A23F0040353612DE03B684FF0FF329A
:100C04001A607B689B68BB601DE07B685B68194663
:100C1400B86800F04DF84CF25030FFF7DBFE0346A5
:100C2400FB73134B5B69124A23F4FF6323F0020343
:100C34005361FB7B002B03D03B68BA681A600AE05F
:100C4400BB680133BB607B689A687B68DB681344CC
:100C5400BA689A42D9D300F04FF8044B00221A70B4
:100C6400FB7B18461037BD4680BD00BF1C0000202A
:100C74000020024080B483B000AF78607B6803F04A
:100C84000103002B05D0094B5B69084A43F00403B8
:100C94005361064B5B69054A43F48033536100BFDB
:100CA4000C37BD465DF8047B704700BF002002404E
:100CB40080B483B000AF786039600E4B5B6923F475
:100CC400FF627B68DB0003F4FF630A4913434B6153
:100CD400084B5B69074A43F002035361054B5B69A8
:100CE400044A43F48033536100BF0C37BD465DF8BA
:100CF400047B70470020024080B483B000AF1E4BD9
:100D04001B7FFB71FB79012B02D0FB79032B11D1E3
:100D14001A4B1B68194A43F400631360174B1B6892
:100D2400164A23F400631360144B1B68134A43F4FC
:100D340000731360FB79022B02D0FB79032B11D1D2
:100D44000E4B1B680D4A43F4805313600B4B1B6816
:100D54000A4A23F480531360084B1B68074A43F480
:100D640080631360044B00221A7700BF0C37BD4622
:100D74005DF8047B704700BF1C0000200020024087
:100D840080B400AF044B1B6803F4C0631846BD462F
:100D94005DF8047B704700BF0070004080B485B0EC
:100DA40000AF78607B68B3F5007F30D1234B1B68BC
:100DB40003F4C063B3F5007F38D0204B1B6823F4E1
:100DC400C0631E4A43F4007313601D4B1B68322238
:100DD40002FB03F31B4AA2FB03239B0C0133FB60BE
:100DE40002E0FB68013BFB60144B5B6903F4806326
:100DF400B3F5806F02D1FB68002BF2D10F4B5B6916
:100E040003F48063B3F5806F10D103230FE00B4B21
:100E14001B6803F4C063B3F5806F07D0074B1B68EE
:100E240023F4C063054A43F4806313600023184627
:100E34001437BD465DF8047B704700BF0070004066
:100E44001000002083DE1B4380B588B000AF7860BB
:100E54007B68002B02D1012300F011BCA04B9B68DE
:100E640003F00C03BB619E4BDB6803F003037B615F
:100E74007B681B6803F01003002B00F0E480BB695F
:100E8400002B07D0BB690C2B40F08B807B69012BB6
:100E940040F08780924B1B6803F00203002B05D0BF
:100EA4007B689B69002B01D10123E8E37B681A6A04
:100EB4008B4B1B6803F00803002B04D0884B1B6882
:100EC40003F0F00305E0864BD3F894301B0903F0DC
:100ED400F003934223D27B681B6A184600F040FD5E
:100EE4000346002B01D00123C9E37D4B1B687C4AD8
:100EF40043F0080313607A4B1B6823F0F0027B680D
:100F04001B6A774913430B60754B5B6823F47F427C
:100F14007B68DB691B02724913434B6025E0704B0D
:100F24001B686F4A43F0080313606D4B1B6823F082
:100F3400F0027B681B6A6A4913430B60684B5B6869
:100F440023F47F427B68DB691B02654913434B60D2
:100F5400BB69002B09D17B681B6A184600F000FDB1
:100F64000346002B01D0012389E300F06FFC014606
:100F74005B4B9B681B0903F00F035A4AD35C03F0D5
:100F84001F0321FA03F3584A1360584B1B68184691
:100F9400FFF734FB0346FB73FB7B002B52D0FB7B38
:100FA4006DE37B689B69002B32D04D4B1B684C4A28
:100FB40043F001031360FFF771FB386108E0FFF7AA
:100FC4006DFB02463B69D31A022B01D9032356E376
:100FD400434B1B6803F00203002BF0D0404B1B680B
:100FE4003F4A43F0080313603D4B1B6823F0F002B3
:100FF4007B681B6A3A4913430B60394B5B6823F4E3
:101004007F427B68DB691B02354913434B601AE05E
:10101400334B1B68324A23F001031360FFF73EFB96
:10102400386108E0FFF73AFB02463B69D31A022B0A
:1010340001D9032323E32A4B1B6803F00203002B8B
:10104400F0D100E000BF7B681B6803F00103002BB4
:1010540073D0BB69082B05D0BB690C2B0ED17B69FF
:10106400032B0BD11E4B1B6803F40033002B63D0FE
:101074007B685B68002B5FD1012300E37B685B68BE
:10108400B3F5803F06D1164B1B68154A43F48033F1
:1010940013601DE07B685B68B3F5A02F0CD1104B87
:1010A4001B680F4A43F4802313600D4B1B680C4AE2
:1010B40043F4803313600BE0094B1B68084A23F4A4
:1010C40080331360064B1B68054A23F480231360A6
:1010D4007B685B68002B1BD0FFF7E0FA386110E0F7
:1010E40000100240941A0008100000201400002090
:1010F400FFF7D4FA02463B69D31A642B01D90323C0
:10110400BDE2AF4B1B6803F40033002BF0D014E0B6
:10111400FFF7C4FA386108E0FFF7C0FA02463B69FA
:10112400D31A642B01D90323A9E2A54B1B6803F44A
:101134000033002BF0D100E000BF7B681B6803F094
:101144000203002B60D0BB69042B05D0BB690C2BB8
:1011540019D17B69022B16D1994B1B6803F4806368
:10116400002B05D07B68DB68002B01D1012386E2CC
:10117400934B5B6823F0FE427B681B691B06904916
:1011840013434B6040E07B68DB68002B23D08C4B1F
:101194001B688B4A43F480731360FFF77FFA38614E
:1011A40008E0FFF77BFA02463B69D31A022B01D908
:1011B400032364E2824B1B6803F48063002BF0D0AA
:1011C4007F4B5B6823F0FE427B681B691B067C49EE
:1011D40013434B6018E07A4B1B68794A23F48073FD
:1011E4001360FFF75BFA386108E0FFF757FA02462D
:1011F4003B69D31A022B01D9032340E2704B1B68CD
:1012040003F48063002BF0D17B681B6803F00803B0
:10121400002B3CD07B685B69002B1CD0684BD3F857
:101224009430674A43F00103C2F89430FFF736FA6A
:10123400386108E0FFF732FA02463B69D31A022B01
:1012440001D903231BE25E4BD3F8943003F002036D
:10125400002BEFD01BE05A4BD3F89430584A23F0BC
:101264000103C2F89430FFF719FA386108E0FFF778
:1012740015FA02463B69D31A022B01D90323FEE176
:101284004F4BD3F8943003F00203002BEFD17B686B
:101294001B6803F00403002B00F0A6800023FB77F7
:1012A400474B9B6D03F08053002B0DD1444B9B6D3A
:1012B400434A43F080539365414B9B6D03F0805345
:1012C400BB60BB680123FB773E4B1B6803F4807350
:1012D400002B18D13B4B1B683A4A43F480731360CC
:1012E400FFF7DCF9386108E0FFF7D8F902463B69FB
:1012F400D31A022B01D90323C1E1324B1B6803F437
:101304008073002BF0D07B689B68012B08D12C4B99
:10131400D3F890302A4A43F00103C2F8903024E015
:101324007B689B68052B10D1254BD3F89030244A59
:1013340043F00403C2F89030214BD3F89030204A94
:1013440043F00103C2F890300FE01D4BD3F8903006
:101354001B4A23F00103C2F89030194BD3F89030A4
:10136400174A23F00403C2F890307B689B68002B73
:1013740016D0FFF793F938610AE0FFF78FF90246B8
:101384003B69D31A41F28832934201D9032376E1AF
:101394000B4BD3F8903003F00203002BEDD01AE08E
:1013A400FFF77CF938610FE0FFF778F902463B69F3
:1013B400D31A41F28832934206D903235FE100BF76
:1013C4000010024000700040AA4BD3F8903003F0A4
:1013D4000203002BE8D1FB7F012B05D1A54B9B6DAC
:1013E400A44A23F0805393657B681B6803F02003B1
:1013F400002B3CD07B685B6A002B1CD09D4BD3F840
:1014040098309C4A43F00103C2F89830FFF746F93C
:10141400386108E0FFF742F902463B69D31A022B10
:1014240001D903232BE1934BD3F8983003F0020343
:10143400002BEFD01BE08F4BD3F898308D4A23F06C
:101444000103C2F89830FFF729F9386108E0FFF783
:1014540025F902463B69D31A022B01D903230EE175
:10146400844BD3F8983003F00203002BEFD17B6850
:101474009B6A002B00F002817B689B6A022B40F080
:10148400C5807C4BDB687B617B6903F003027B686E
:10149400DB6A9A422CD17B6903F070027B681B6B78
:1014A400013B1B019A4223D17B6903F4FE427B6812
:1014B4005B6B1B029A421BD17B6903F078427B6809
:1014C4009B6BDB069A4213D17B6903F4C0027B68F1
:1014D400DB6B5B08013B5B059A4209D17B6903F036
:1014E400C0627B681B6C5B08013B5B069A4267D059
:1014F400BB690C2B62D05F4B1B6803F08063002B2D
:1015040001D00123BBE05B4B1B685A4A23F0807374
:101514001360FFF7C3F8386108E0FFF7BFF802462D
:101524003B69D31A022B01D90323A8E0514B1B6852
:1015340003F00073002BF0D14E4BDA684E4B13408E
:101544007A68D16A7A68126B013A120111437A6897
:10155400526B120211437A68D26B5208013A520557
:1015640011437A68126C5208013A520611437A68A0
:10157400926BD2060A433F491343CB603D4B1B6831
:101584003C4A43F0807313603A4BDB68394A43F0BA
:101594008073D360FFF782F8386108E0FFF77EF8C4
:1015A40002463B69D31A022B01D9032367E0314B6E
:1015B4001B6803F00073002BF0D05FE001235EE0B2
:1015C4002C4B1B6803F00073002B57D1294B1B686D
:1015D400284A43F080731360264BDB68254A43F0A6
:1015E4008073D360FFF75AF8386108E0FFF756F8C4
:1015F40002463B69D31A022B01D903233FE01D4B5A
:101604001B6803F00073002BF0D037E0BB690C2B90
:101614002DD0184B1B68174A23F080731360154BA9
:101624001B6803F00063002B05D1124BDB68114AE1
:1016340023F00303D3600F4BDB680E4A23F0887357
:1016440023F48033D360FFF729F8386108E0FFF70B
:1016540025F802463B69D31A022B01D903230EE075
:10166400044B1B6803F00073002BF0D106E0012348
:1016740005E000BF001002408C809D010023184645
:101684002037BD4680BD00BF80B584B000AF786010
:1016940039607B68002B01D10123C8E0664B1B68CD
:1016A40003F007033A689A4210D9634B1B6823F08E
:1016B400070261493B6813430B605F4B1B6803F0EF
:1016C40007033A689A4201D00123B0E07B681B68A3
:1016D40003F00103002B4CD07B685B68032B07D11C
:1016E400564B1B6803F00073002B21D101239EE0AD
:1016F4007B685B68022B07D1504B1B6803F40033F3
:10170400002B15D1012392E07B685B68002B07D185
:101714004A4B1B6803F00203002B09D1012386E026
:10172400464B1B6803F48063002B01D101237EE048
:10173400424B9B6823F003027B685B683F49134379
:101744008B60FEF7ABFFF8600AE0FEF7A7FF0246E6
:10175400FB68D31A41F28832934201D9032366E02D
:10176400364B9B6803F00C027B685B689B009A42D3
:10177400EBD17B681B6803F00203002B08D02F4BCE
:101784009B6823F0F0027B689B682C4913438B60B1
:10179400294B1B6803F007033A689A4210D2264B80
:1017A4001B6823F0070224493B6813430B60224B58
:1017B4001B6803F007033A689A4201D0012336E01C
:1017C4007B681B6803F00403002B08D01B4B9B6849
:1017D40023F4E0627B68DB68184913438B607B6801
:1017E4001B6803F00803002B09D0144B9B6823F4F7
:1017F40060527B681B69DB00104913438B6000F067
:1018040025F801460D4B9B681B0903F00F030C4A96
:10181400D35C03F01F0321FA03F30A4A13600A4B53
:101824001B681846FEF7EAFE0346FB72FB7A18466D
:101834001037BD4680BD00BF0020024000100240AA
:10184400941A0008100000201400002080B489B00D
:1018540000AF0023FB610023BB613D4B9B6803F099
:101864000C033B613A4BDB6803F00303FB603B6909
:10187400002B05D03B690C2B21D1FB68012B1ED119
:10188400334B1B6803F00803002B07D1304BD3F80C
:1018940094301B0A03F00F03FB6105E02C4B1B681B
:1018A4001B0903F00F03FB612A4AFB6952F823303A
:1018B400FB613B69002B0DD1FB69BB610AE03B690D
:1018C400042B02D1244BBB6104E03B69082B01D1FA
:1018D400224BBB613B690C2B33D11D4BDB6803F0FE
:1018E4000303BB60BB68022B02D0032B03D005E0CB
:1018F400194B7B6105E0194B7B6102E0FB697B615D
:1019040000BF134BDB681B0903F0070301337B6043
:101914000F4BDB681B0A03F07F037A6902FB03F2B7
:101924007B68B2FBF3F37B61094BDB685B0E03F06E
:10193400030301335B003B607A693B68B2FBF3F35A
:10194400BB61BB6918462437BD465DF8047B70470C
:1019540000100240A41A00080024F40000127A00C7
:1019640080B586B000AF786000233B612A4B9B6D45
:1019740003F08053002B03D0FFF702FA786114E0E0
:10198400254B9B6D244A43F080539365224B9B6DFA
:1019940003F08053FB60FB68FFF7F2F978611E4B9C
:1019A4009B6D1D4A23F0805393657B69B3F5007FDB
:1019B4000BD17B68802B19D97B68A02B02D9022319
:1019C4003B6113E001233B6110E07B68802B02D96B
:1019D40003233B610AE07B68802B02D102233B6135
:1019E40004E07B68702B01D101233B610B4B1B6826
:1019F40023F0070209493B6913430B60074B1B683B
:101A040003F007033A699A4201D0012300E000235E
:101A140018461837BD4680BD001002400020024021
:101A240070B50D4E0D4CA41BA4100025A54209D180
:101A34000B4E0C4C00F020F8A41BA4100025A5426A
:101A440005D170BD56F8253098470135EEE756F8B4
:101A5400253098470135F2E7D41A0008D41A000853
:101A6400D41A0008D81A000802440346934200D14D
:101A7400704703F8011BF9E7F8B500BFF8BC08BCD0
:101A84009E467047F8B500BFF8BC08BC9E46704738
:101A9400000000000000000001020304060708091A
:101AA400A0860100400D0300801A060000350C00DA
:101AB40040420F0080841E0000093D0000127A009D
:101AC4000024F40000366E010048E801006CDC02DA
:041AD400B90100084C
:041AD800950100086C
:101ADC000A225566778899121314151617181921AE
:101AEC0000093D0010000000010000000000000093
:101AFC0000000000000000000000000001000000D9
:0C1B0C00000000000000000000000000CD
:04000005080003FDEF
:00000001FF
